:200000000C9462010C948A010C948A010C948A010C948A010C948A010C948A010C948A01B0
:200020000C948A010C948A010C948A010C948A010C948A010C948A010C948A010C948A0168
:200040000C940A320C948A010C94F9020C9435030C948A010C948A010C948A010C948A017A
:200060000C948A010C948A01084AD73B3BCE016E84BCBFFDC12F3D6C74319ABD56833DDACD
:200080003D00C77F11BED9E4BB4C3E916BAAAABE000000803F05A84CCDB2D44EB93836A9D5
:2000A000020C50B9918688083CA6AAAA2ABE000000803F0664EC1B3C04BC163E3BE5B93CCF
:2000C000C93C37C29E5A3D660498083EEA69AAAA3E000000803F2020202020202020004EB3
:2000E0006F206D6176206461746121002020202020202020202020202020207C2020202076
:2001000020202020202020202020207CC6202020202020202020202020C5207C20202020DC
:2001200020202020202020202020207C202020202020202020202020202020004D696E6976
:200140006D4F53442D457874726120322E347C436F7074657220723830350043440A00526C
:2001600046460A0000407A10F35A00A0724E18090010A5D4E80000E87648170000E40B54E0
:20018000020000CA9A3B000000E1F505000080969800000040420F000000A086010000007D
:2001A000102700000000E803000000006400000000000A00000000000100000000002C760C
:2001C000D888DC674F0823DFC1DFAE59E1B1B796E5E3E453C63AE651997696E8E6C2842688
:2001E000EB898C9B62ED407C6FFCEFBC9C9F40F2BAA56FA5F490055A2AF75C936B6CF96739
:200200006DC11BFCE0E40D47FEF520E6B500D0ED902E0300943577050080841E08000020C6
:200220004E0A000000C80C333333330F986E12831141EF8D2114893BE65516CFFEE6DB185E
:20024000D1844B381BF77C1D901DA4BBE424203284725E228100C9F124ECA1E53D276E613B
:200260006E00696E660000000000240027002A0000000000250028002B00000000002300C3
:200280002600290004040404040404040202020202020303030303030102040810204080D2
:2002A0000102040810200102040810200000000700020100000304060000000000000000A9
:2002C000F402830311241FBECFEFD8E0DEBFCDBF14E0A0E0B1E0ECE9F0E702C005900D924A
:2002E000AA33B107D9F716E0AAE3B4E001C01D92A337B107E1F712E0C4ECD2E004C02297D7
:20030000FE010E944838C03CD107C9F70E94E5330C944C380C940000283008F027E03327F9
:20032000DA01990F311D87FD916000966105710539F432602E5F3D9330E32A95E1F70895A2
:200340009F3F30F080387105610509F03C5F3C5F3D93913008F08068911DDF93CF931F9337
:200360000F93FF92EF92192F987F9695E92F96959695E90FFF27E254FE4F99273327EE2404
:20038000FF24A701E70105900894079428F4360FE71EF81E491F511D660F771F881F991F22
:2003A0000694A1F70590079428F4E70EF81E491F561FC11D770F881F991F661F0694A1F75D
:2003C0000590079428F4F80E491F561FC71FD11D880F991F661F771F0694A1F7059007944E
:2003E00020F4490F561FC71FD81F990F661F771F881F0694A9F784911095177041F0D695BE
:20040000C79557954795F794E7941A95C1F7E4E6F1E06894159015913591659195910590F2
:200420007FE27395E118F10A430B560BC90BD009C0F7E10CF11E431F561FC91FD01D7EF432
:20044000703311F48A95E6CFE894015030F0080F0AF40027021708F4202F2395022F7A33FD
:2004600028F079E37D932A95E9F710C07D932A9589F6069497956795379517951794E1185D
:20048000F10A430B560BC90BD00998F023957E9173957A3308F070E37C932013B8F77E91B6
:2004A00070617D9330F0839571E37D9370E32A95E1F71124EF90FF900F911F91CF91DF9172
:2004C000992787FD90950895FA01AA27283051F1203181F1E8946F936E7F6E5F7F4F8F4F09
:2004E0009F4FAF4FB1E03ED0B4E03CD0670F781F891F9A1FA11D680F791F8A1F911DA11D81
:200500006A0F711D811D911DA11D20D009F468943F912AE0269F11243019305D3193DEF69F
:20052000CF010895462F4770405D4193B3E00FD0C9F7F6CF462F4F70405D4A3318F0495DBE
:2005400031FD4052419302D0A9F7EACFB4E0A6959795879577956795BA95C9F700976105B1
:20056000710508959B01AC010A2E06945795479537952795BA95C9F7620F731F841F951F94
:20058000A01D0895FC010590615070400110D8F7809590958E0F9F1F0895FC01615070409E
:2005A00001900110D8F7809590958E0F9F1F08956EBD0DB407FEFDCF8EB508958DE061E04D
:2005C0000E94FE328BE061E00E94FE328CE060E00E94FE328AE061E00E94FE321CBC80E593
:2005E0008CBD8DB58EB508958AE394E00E94DE0208951F920F920FB60F9211242F933F930F
:200600004F938F939F93EF93FF934091C60020915206309153062F5F3F4F8091560690912C
:2006200057062823392380915406909155062817390779F08091520690915306E091580635
:20064000F0915906E80FF91F40833093530620935206FF91EF919F918F914F913F912F91F1
:200660000F900FBE0F901F9018951F920F920FB60F9211242F933F938F939F93EF93FF932A
:2006800020915C0630915D0680915A0690915B0628173907E9F080915C0690915D06E09170
:2006A0006006F0916106E80FF91F80818093C60080915C0690915D06019620915E0630919F
:2006C0005F068223932390935D0680935C0610C020915A0630915B0680915C0690915D0665
:2006E0002817390729F48091C1008F7D8093C100FF91EF919F918F913F912F910F900FBE50
:200700000F901F9018958F92AF92CF92EF92FF920F931F9389EB94E060E045EC50E024EC1C
:2007200030E000EC10E0F1ECEF2EF12CCC24C394E8E9AE2E70E2872E0E940D2A86ED94E0FB
:200740000E94EF271F910F91FF90EF90CF90AF908F9008958091E8048130C1F40E945232A0
:2007600068517C4F8F4F9F4F6093E9047093EA048093EB049093EC041092E80490E0809134
:20078000ED04882309F491E09093ED040E9452322091E9043091EA044091EB045091EC0437
:2007A000261737074807590718F481E08093E8040895EF92FF920F931F938091D902882309
:2007C00061F490915C0580916905891719F081E080936A0590936905C0C080916B058430F1
:2007E000C9F590911205892F8650823008F4B5C080916C058917A1F090936C050E945232E5
:2008000060936D0570936E0580936F059093700590916C058091DA02981711F411E001C0F9
:2008200010E00E94523220916D0530916E0540916F0550917005621B730B840B950B615DC8
:2008400077408040904008F47AC0809112058093DA0275C0853029F48091710590917205DE
:2008600014C0863029F480917305909174050DC0873029F4809175059091760506C0883068
:2008800041F4809177059091780590935E0580935D058091790520915D0530915E0588238C
:2008A00049F544E0203B340740F480916905882321F081E080936A054EC0C901805B944067
:2008C0008955924040F480916905813021F081E080936A050CC02950374008F43EC0809149
:2008E00069058230D1F181E080936A0582E08093690533C0215B344080F1E0906D05F0909A
:200900006E0500916F051091700588EE93E0A0E0B0E0E80EF91E0A1F1B1F0E945232E616BE
:20092000F70608071907C8F40E94523260936D0570936E0580936F059093700502C01123B9
:2009400061F081E080936A05809169058F5F80936905833010F0109269051F910F91FF90D3
:20096000EF9008956F927F928F929F92AF92BF92CF92DF92EF92FF920F931F936091B30584
:200980007091B4058091B5059091B6052091F2043091F3044091F4045091F5040E94BC3660
:2009A00020E030E040E752E40E94BC362DEC3CEC4CEC5DE30E94BC367B018C0160914B059F
:2009C00070914C0580914D0590914E0526E636E646E65FE30E94BC369B01AC01C801B701FA
:2009E0000E94213460934B0570934C0580934D0590934E054091450580918F05992787FD8A
:200A00009095242F30E08217930714F440938F050E9452325B016C0180913B0690913C0608
:200A2000A0913D06B0913E06A81AB90ACA0ADB0A0E94523260933B0670933C0680933D068A
:200A400090933E0660905F05709060058090610590906205C401B30120E030E040E85FE386
:200A60000E94B136181624F5C601B5010E9487359B01AC01C401B3010E94BC3620E030E065
:200A80004AE754E40E94EE349B01AC01609198057091990580919A0590919B050E9421344B
:200AA000609398057093990580939A0590939B056091670570916805882777FD8095982FC6
:200AC0000E94893520E030E040E251E40E94BC367B018C01C601B5010E9487359B01AC018E
:200AE000C801B7010E94BC3620E03AEB4BE55AE40E94EE349B01AC016091460570914705B8
:200B000080914805909149050E94213460934605709347058093480590934905809113058A
:200B2000882309F4AEC060918B0570918C0580918D0590918E056A0D7B1D8C1D9D1D6093D0
:200B40008B0570938C0580938D0590938E0528EE33E040E050E00E940938309344052093FB
:200B6000430560913F057091400580914105909142050E9489357B018C012091940530917F
:200B8000950540919605509197050E94B136181644F4E0929405F0929505009396051093EB
:200BA0009705E0905005F09051050091520510915305C801B70120913F06309140064091CE
:200BC0004106509142060E94B136181644F4E0923F06F09240060093410610934206C401AD
:200BE000B30120919C0530919D0540919E0550919F050E94B136181644F460929C0570920F
:200C00009D0580929E0590929F05E0900005F09001050091020510910305C801B701209149
:200C2000A0053091A1054091A2055091A3050E94B136181644F4E092A005F092A1050093E6
:200C4000A2051093A305E0900805F090090500910A0510910B05C801B7012091430630910A
:200C6000440640914506509146060E94B136181644F4E0924306F0924406009345061093EA
:200C800046061F910F91FF90EF90DF90CF90BF90AF909F908F907F906F90089583E696E076
:200CA0006AE773E00E94C2308823B1F586E696E6A6E6B0E48093EE049093EF04A093F00461
:200CC000B093F10480E090E0A0E8BFE38093F2049093F304A093F404B093F50480E18093E4
:200CE000F6048CE08093F7048AEB90E09093F9048093F8048AE08093D6021092FB041092D4
:200D0000FA048BE18093FC0488EE93E09093FE048093FD048AE137C082E598EBAEE0B0E4C6
:200D20008093EE049093EF04A093F004B093F10485E89BEEA1E5B0E48093F2049093F30406
:200D4000A093F404B093F50489E18093F60486E68093F7048BEB90E09093F9048093F80426
:200D600082E18093D60280E89CE09093FB048093FA048CE18093FC0480EA94E19093FE048A
:200D80008093FD048EE18093FF040895CF93DF9383E696E06CE773E00E94C23080935405C4
:200DA00083E696E06EE773E00E94C23080934F0583E696E060E873E00E94C2308093550536
:200DC00083E696E06EE873E00E94C2308093790583E696E066E773E00E94C23080935C05DF
:200DE00083E696E06AE873E00E94C23080936B0583E696E064E873E00E94C23080938905A5
:200E000083E696E066E873E00E94C2308093880583E696E06CE873E00E94C2308093580594
:200E200083E696E062E973E00E94C2308093560583E696E064E973E00E94C23080935705B1
:200E4000C0E0D0E0BE0168567C4F83E696E00E94C230FE01E258FA4F8083882321F021968F
:200E6000C830D10579F7C258DA4F1982DF91CF910895BC0183E696E00E94C2300895DF92AB
:200E8000EF92FF920F931F93CF93DF93D82E7B016091000570910105809102059091030558
:200EA0002091F2043091F3044091F4045091F5040E94BC3620E030E040EA50E40E94213437
:200EC0002DEC3CEC4CE850E40E94BC360E9456358B019C01CB0101978B9788F4C80169E06B
:200EE00070E00E94F637CFECD0E0C81BD90BC80169E070E00E94F637E60EF71E0CC00C325D
:200F000011051CF4CFECD0E006C084E090E0E80EF91EC8ECD0E006ED14E09EE0D90EC80120
:200F20006D2D4E2D0E94A52800D000D000D0EDB7FEB73196ADB7BEB712961C930E93119724
:200F400080E091E093838283D583C4830E94902C8DB79EB706960FB6F8949EBF0FBE8DBFAC
:200F6000DF91CF911F910F91FF90EF90DF900895BF92CF92DF92EF92FF920F931F93CF934C
:200F8000DF93C82FD0E0CC0FDD1FC257DF4F613009F069C0C090EE04D090EF04E090F0046E
:200FA000F090F104B090F6044DB75EB7465150400FB6F8945EBF0FBE4DBF0DB71EB70F5FF4
:200FC0001F4F86ED94E0ADB7BEB712969C938E93119783E091E0F801938382838DE190E07D
:200FE00095838483C701B601209108053091090540910A0550910B050E94BC36D8011696DC
:201000006D937D938D939C9319971A96BC921A971B961C921B971D96DC93CE931C97219614
:201020001F96DC93CE931E97C701B60120910C0530910D0540910E0550910F050E94BC36F5
:20104000F801608B718B828B938BB48A158A0E94902C4DB75EB74A5E5F4F0FB6F8945EBF6D
:201060000FBE4DBF52C086ED94E09E012F5F3F4F623039F5ADB7BEB71C970FB6F894BEBFC9
:201080000FBEADBFEDB7FEB7319612969C938E93119789E191E093838283D583C483378308
:2010A000268380911005909111059187808785E090E0938782870E94902CEDB7FEB73C968A
:2010C0001FC04DB75EB7485050400FB6F8945EBF0FBE4DBFEDB7FEB73196ADB7BEB7129608
:2010E0009C938E93119783E291E093838283D583C483378326830E94902CEDB7FEB7389680
:201100000FB6F894FEBF0FBEEDBFDF91CF911F910F91FF90EF90DF90CF90BF9008952F929F
:201120003F924F925F926F927F928F929F92AF92BF92CF92DF92EF92FF920F931F93DF936C
:20114000CF9300D000D000D0CDB7DEB7182F662E20910405309105052A35310530F0C901C5
:201160008D549F4F89359105E8F437FF02C02D543F4FC90137FF03C0909581959F4F8A31C2
:2011800091053CF0B9ED8B2E912CA8EF2A2E312C1DC00A975CF1F0ED8F2E912CE3EF2E2ED5
:2011A000312C20C02B35310514F0235B3040C90137FF03C0909581959F4F8A31910554F0E9
:2011C0007BEE872E912C6BEF262E312C57E0A52EB12C15C00A9754F042EE842E912C35EFC5
:2011E000232E312C28E0A22EB12C09C096EC892E912C8DEC282E312C09E0A02EB12C60911C
:20120000060570910705882777FD8095982F0E94893527EA32E94BE25CEB0E94BC360E9481
:20122000903720E030E040EA50E40E94BC3620E030E040E951E40E94BC360E941F3720E0EB
:2012400030E044E352E40E9421340E945635712E1EEBC12E1FEFD12E9B01442737FD409549
:20126000542F29833A834B835C83B6ED4B2EB4E05B2E4AEF5FEF240E351E60910405709195
:201280000505882777FD8095982F0E94893525E33AEF4EE85CE30E94BC360E9490377B01C6
:2012A0008C01B601882777FD8095982F0E9489359B01AC01C801B7010E94BC367B018C0124
:2012C00069817A818B819C810E9489359B01AC01C801B7010E9421340E9456359B01CB014A
:2012E00001978A35910508F071C062E170E00E94F6378B012F5F3F4FAEEEBFEF6A9FC001BA
:201300006B9F900D7A9F900D1124820F931F62E070E00E94F6376D837E83E62CE01A4E2D1F
:201320004C5F86ED94E0672D0E94A52800D000D000D0EDB7FEB73196ADB7BEB712965C9219
:201340004E92119720E031E0338322838D819E81880D991D958384830E94902C4DB75EB78B
:201360004A5F5F4F0FB6F8945EBF0FBE4DBF8D819E818A159B0554F1043011053CF593E030
:20138000E90EC201672D4E2D0E94A52800D000D000D0EDB7FEB73196ADB7BEB712965C9216
:2013A0004E92119720E031E0338322834D815E81420D531D558344830E94902C8DB79EB737
:2013C00006960FB6F8949EBF0FBE8DBFACE0B0E0CA0EDB1E7394BEE4CB16D10409F04DCF49
:2013E00026960FB6F894DEBF0FBECDBFCF91DF911F910F91FF90EF90DF90CF90BF90AF9060
:201400009F908F907F906F905F904F903F902F9008956091170570911805809119059091FC
:201420001A0520E030E040EC51E40E94BC3620E030E044EB53E40E94EE340E941F370E94B4
:2014400056359B012350304037FF03C09B012B5E3F4FA3E2B5E0F901E551FC4F80818C9321
:201460002F5F3F4F2831310514F020E030E0119685E0AE32B80779F710922A0508950F9382
:201480001F93282F462F86ED94E0622F0E940E2886ED94E00E94E62880911205882319F407
:2014A00028E231E03EC0813019F42DE231E039C0823019F422E331E034C0833019F427E3A9
:2014C00031E02FC0843019F42CE331E02AC0853019F421E431E025C0863019F426E431E0A6
:2014E00020C0873019F42BE431E01BC0893019F420E531E016C08A3019F425E531E011C0E8
:201500008B3019F42AE531E00CC08D3019F42FE531E007C0803119F024E631E002C025E6BF
:2015200031E04DB75EB74A5050400FB6F8945EBF0FBE4DBFEDB7FEB7319606ED14E0ADB7A5
:20154000BEB712961C930E9311978AE691E0938382838FE790E09583848337832683809101
:20156000130590E026E830E0AC01429FC001439F900D529F900D1124918780870E94902CB7
:201580008DB79EB70A960FB6F8949EBF0FBE8DBFC8010E94CA281F910F9108950F931F93AD
:2015A000282F462F06ED14E0C801622F0E940E28C8010E94E6288091140560E00E94B80702
:2015C000C8010E94CA281F910F9108950F931F93282F462F06ED14E0C801622F0E940E2888
:2015E000C8010E94E6288DB79EB70A970FB6F8949EBF0FBE8DBFEDB7FEB73196ADB7BEB778
:2016000012961C930E9311978AE691E09383828383EC90E09583848383E295E09783868333
:2016200087E890E0918780870E94902C8DB79EB70A960FB6F8949EBF0FBE8DBFC8010E94E3
:20164000CA281F910F9108950F931F93282F462F06ED14E0C801622F0E940E28C8010E9407
:20166000E6288DB79EB70A970FB6F8949EBF0FBE8DBFEDB7FEB73196ADB7BEB712961C930B
:201680000E93119781E791E0938382838091170590911805A0911905B0911A0584839583D4
:2016A000A683B78385E090E0918780870E94902C8DB79EB70A960FB6F8949EBF0FBE8DBF75
:2016C000C8010E94CA281F910F9108950F931F93282F462F06ED14E0C801622F0E940E2887
:2016E000C8010E94E6288DB79EB70C970FB6F8949EBF0FBE8DBFEDB7FEB73196ADB7BEB775
:2017000012961C930E93119789E791E09383828380912F0590913005A0913105B0913205B3
:2017200084839583A683B7838091330590913405A0913505B091360580879187A287B3871B
:201740000E94902C8DB79EB70C960FB6F8949EBF0FBE8DBFC8010E94CA281F910F910895DF
:201760000F931F93282F462F86ED94E0622F0E940E2886ED94E00E94E62880913705823063
:2017800011F42FE105C0833011F42FE001C02AE28091380590913905883C910520F08091B3
:2017A000ED04811120E28DB79EB708970FB6F8949EBF0FBE8DBFEDB7FEB7319606ED14E09E
:2017C000ADB7BEB712961C930E93119787E891E0938382832483158280913A058683178265
:2017E0000E94902C8DB79EB708960FB6F8949EBF0FBE8DBFC8010E94CA281F910F91089543
:201800000F931F93282F462F06ED14E0C801622F0E940E28C8010E94E6288DB79EB70A97DC
:201820000FB6F8949EBF0FBE8DBFEDB7FEB73196ADB7BEB712961C930E9311978DE891E062
:201840009383828380913B0590913C05A0913D05B0913E0584839583A683B7838DE090E064
:20186000918780870E94902C8DB79EB70A960FB6F8949EBF0FBE8DBFC8010E94CA281F91DE
:201880000F9108950F931F93282F462F06ED14E0C801622F0E940E28C8010E94E6288DB715
:2018A0009EB70A970FB6F8949EBF0FBE8DBFEDB7FEB73196ADB7BEB712961C930E931197D2
:2018C00085E991E09383828380910405909105059583848385E090E09783868386E090E0DC
:2018E000918780870E94902C8DB79EB70A960FB6F8949EBF0FBE8DBFC8010E94CA281F915E
:201900000F9108950F931F93282F462F06ED14E0C801622F0E940E28C8010E94E6288DB794
:201920009EB70A970FB6F8949EBF0FBE8DBFEDB7FEB73196ADB7BEB712961C930E93119751
:2019400085E991E09383828380910605909107059583848385E090E09783868387E090E056
:20196000918780870E94902C8DB79EB70A960FB6F8949EBF0FBE8DBFC8010E94CA281F91DD
:201980000F910895EF92FF920F931F93282F462F16EDE12E14E0F12EC701622F0E940E2882
:2019A000C7010E94E6288DB79EB70C970FB6F8949EBF0FBE8DBF0DB71EB70F5F1F4FEDB793
:2019C000FEB7F282E1828DE991E0F801938382838BE090E09583848360913F05709140050B
:2019E00080914105909142050E9489352091F2043091F3044091F4045091F5040E94BC3632
:201A0000F80166837783808791878091F704828713860E94902C8DB79EB70C960FB6F89433
:201A20009EBF0FBE8DBFC7010E94CA281F910F91FF90EF9008950F931F93282F462F06EDC6
:201A400014E0C801622F0E940E28C8010E94E62820914305309144058DB79EB70A970FB6E5
:201A6000F8949EBF0FBE8DBFEDB7FEB73196ADB7BEB712961C930E93119787EA91E09383D3
:201A80008283C9016CE370E00E94F637CB016CE370E00E94F637958384838AE390E09783B9
:201AA0008683C9016CE370E00E94F637918780870E94902C8DB79EB70A960FB6F8949EBF81
:201AC0000FBE8DBFC8010E94CA281F910F910895CF93DF93282F462FC6EDD4E0CE01622F3C
:201AE0000E940E28CE010E94E62883E696E068E773E00E94C230813039F58DB79EB70A9761
:201B00000FB6F8949EBF0FBE8DBFEDB7FEB73196ADB7BEB71296DC93CE93119781EB91E008
:201B20009383828387E190E095838483809145058683178285E290E0918780870E94902C42
:201B40008DB79EB70A962CC0ADB7BEB71C970FB6F894BEBF0FBEADBFEDB7FEB73196129605
:201B6000DC93CE9311978BEB91E09383828387E190E0958384838091460590914705A091FA
:201B80004805B091490586839783A087B18781E090E0938782870E94902C8DB79EB70C965A
:201BA0000FB6F8949EBF0FBE8DBF86ED94E00E94CA28DF91CF9108950F931F93282F462F56
:201BC00006ED14E0C801622F0E940E28C8010E94E6288DB79EB708970FB6F8949EBF0FBEC0
:201BE0008DBFEDB7FEB73196ADB7BEB712961C930E93119785EC91E09383828380914A05A3
:201C00008483158285E290E0978386830E94902C8DB79EB708960FB6F8949EBF0FBE8DBFD0
:201C2000C8010E94CA281F910F910895BF92CF92DF92EF92FF920F931F93282F462F86ED92
:201C400094E0622F0E940E2886ED94E00E94E6288091E804813009F038C180913705823071
:201C600028F4DD24D394BB24B39402C0DD24BB2460914B0570914C0580914D0590914E05AE
:201C80000E945635AB0177FF03C0509541955F4F80914F052AE0829FC0011124841795070C
:201CA0002CF4CC24C394DD24D39401C0CC2460915005709151058091520590915305209175
:201CC000EE043091EF044091F0045091F1040E94BC367B018C016091540570E080E090E0BC
:201CE0000E9487359B01AC01C801B7010E94B136181624F411E0DD24D39401C010E06091F2
:201D0000550570E080E090E00E94873520E030E040E251E40E94EE349B01AC0160913B0546
:201D200070913C0580913D0590913E050E94E73487FD0AC09091560580914505891710F424
:201D4000992311F440E003C041E0DD24D3942091D7023091D8028091570590E028173907D5
:201D60005CF42D593F4F41F080915805882321F431E0DD24D39401C030E08091590588233C
:201D8000C9F4DD2069F08B2D90E001968C0D911D810F911D840F911D830F911D029739F4A5
:201DA0008DEC91E090935B0580935A0503C081E08093590580915905813069F491E0B916F2
:201DC00039F48AED91E090935B0580935A0503C082E08093590580915905823069F4A1E064
:201DE000CA1639F487EE91E090935B0580935A0503C083E08093590580915905833061F4ED
:201E0000113039F484EF91E090935B0580935A0503C084E08093590580915905843061F46B
:201E2000413039F481E092E090935B0580935A0503C085E08093590520915905253041F40A
:201E4000313031F48EE092E090935B0580935A052F5F20935905B1E0DB1639F480915C0567
:201E6000833018F41092D9020AC080915D0590915E05805B944018F481E08093D902263005
:201E800010F01092590500D000D000D0EDB7FEB7319686ED94E0ADB7BEB712969C938E93FA
:201EA00011978BE192E09383828380915A0590915B05958384830E94902C8DB79EB70696DE
:201EC0000FB6F8949EBF0FBE8DBF86ED94E00E94CA281F910F91FF90EF90DF90CF90BF9045
:201EE0000895EF92FF920F931F93CF93DF93282F462FC6EDD4E0CE01622F0E940E28CE01D1
:201F00000E94E62883E696E062E773E00E94C2308823F1F000D000D000D0EDB7FEB73196E6
:201F2000ADB7BEB71296DC93CE93119780E091E09383828383E190E0958384830E94902C6B
:201F4000EDB7FEB736960FB6F894FEBF0FBEEDBF8DB79EB70A970FB6F8949EBF0FBE8DBFD4
:201F60000DB71EB70F5F1F4F86EDE82E84E0F82EADB7BEB71296FC92EE9211978EE192E0C1
:201F8000F80193838283609150057091510580915205909153052091EE043091EF04409187
:201FA000F0045091F1040E94BC36D80114966D937D938D939C9317978091F60418968C935B
:201FC000189719961C920E94902CEDB7FEB73A960FB6F894FEBF0FBEEDBFC7010E94CA288B
:201FE000DF91CF911F910F91FF90EF900895EF92FF920F931F93CF93DF93282F462FC6ED5D
:20200000D4E0CE01622F0E940E28CE010E94E62883E696E060E773E00E94C2308823F1F0BC
:2020200000D000D000D0EDB7FEB73196ADB7BEB71296DC93CE93119780E091E0938382832B
:2020400084E190E0958384830E94902CEDB7FEB736960FB6F894FEBF0FBEEDBF8DB79EB7E9
:202060000A970FB6F8949EBF0FBE8DBF0DB71EB70F5F1F4F96EDE92E94E0F92EADB7BEB775
:202080001296FC92EE9211978EE192E0F8019383828360915F05709160058091610590919A
:2020A00062052091EE043091EF044091F0045091F1040E94BC36D80114966D937D938D9380
:2020C0009C9317978091F60418968C93189719961C920E94902CEDB7FEB73A960FB6F89467
:2020E000FEBF0FBEEDBFC7010E94CA28DF91CF911F910F91FF90EF900895EF92FF920F93CF
:202100001F93CF93DF93282F462FC6EDD4E0CE01622F0E940E28CE010E94E62883E696E070
:202120006EE673E00E94C2308823F1F000D000D000D0EDB7FEB73196ADB7BEB71296DC9358
:20214000CE93119780E091E09383828382E190E0958384830E94902CEDB7FEB736960FB650
:20216000F894FEBF0FBEEDBF8DB79EB70A970FB6F8949EBF0FBE8DBF0DB71EB70F5F1F4F27
:2021800026EDE22E24E0F22EADB7BEB71296FC92EE92119786E292E0F801938382836091E2
:2021A00000057091010580910205909103052091F2043091F3044091F4045091F5040E942E
:2021C000BC36D80114966D937D938D939C9317978091F70418968C93189719961C920E94F6
:2021E000902CEDB7FEB73A960FB6F894FEBF0FBEEDBFC7010E94CA28DF91CF911F910F91F7
:20220000FF90EF900895EF92FF920F931F93282F462F36EDE32E34E0F32EC701622F0E947D
:202220000E28C7010E94E6288DB79EB70E970FB6F8949EBF0FBE8DBF0DB71EB70F5F1F4F76
:20224000EDB7FEB7F282E1828EE292E0F8019383828385E190E09583848360914B05709121
:202260004C0580914D0590914E0520E030E040E251E40E94EE340E945635882777FD8095A6
:20228000982F0E94893520E030E040E251E40E94BC36F80166837783808791878091FF040D
:2022A0008287138680E290E0958784870E94902C8DB79EB70E960FB6F8949EBF0FBE8DBF21
:2022C000C7010E94CA281F910F91FF90EF900895EF92FF920F931F93CF93DF93282F462FA1
:2022E000C6EDD4E0CE01622F0E940E28CE010E94E62883E696E06CE673E00E94C2308823FD
:20230000F1F000D000D000D0EDB7FEB73196ADB7BEB71296DC93CE93119780E091E093836C
:20232000828381E190E0958384830E94902CEDB7FEB736960FB6F894FEBF0FBEEDBF8DB759
:202340009EB70A970FB6F8949EBF0FBE8DBF0DB71EB70F5F1F4F46EDE42E44E0F42EADB75C
:20236000BEB71296FC92EE92119786E292E0F801938382836091630570916405809165055E
:20238000909166052091F2043091F3044091F4045091F5040E94BC36D80114966D937D9388
:2023A0008D939C9317978091F70418968C93189719961C920E94902CEDB7FEB73A960FB6EF
:2023C000F894FEBF0FBEEDBFC7010E94CA28DF91CF911F910F91FF90EF900895EF92FF9202
:2023E0000F931F93282F462F56EDE52E54E0F52EC701622F0E940E28C7010E94E6288DB723
:202400009EB70A970FB6F8949EBF0FBE8DBF0DB71EB70F5F1F4FEDB7FEB7F282E1828DE8E5
:2024200091E0F801938382836091670570916805882777FD8095982F0E9489352AE037EDBF
:2024400043E25CE30E94BC36F80164837583868397838EE090E0918780870E94902C8DB7EA
:202460009EB70A960FB6F8949EBF0FBE8DBFC7010E94CA281F910F91FF90EF900895CF93E7
:20248000DF93282F462FC6EDD4E0CE01622F0E940E28CE010E94E6280E94523228EE33E091
:2024A00040E050E00E940938CA01B9012CE330E040E050E00E9409382BE132E062307105EC
:2024C0008105910588F400D000D000D0EDB7FEB73196ADB7BEB71296DC93CE931197338325
:2024E00022838EE795E010C000D000D000D0EDB7FEB73196ADB7BEB71296DC93CE931197F4
:20250000338322838BED92E0958384830E94902C8DB79EB706960FB6F8949EBF0FBE8DBFFD
:2025200086ED94E00E94CA28DF91CF910895BF92CF92DF92EF92FF920F931F93282F462F5E
:2025400086ED94E0622F0E940E2886ED94E00E94E6289091580590FD4FC0C090880580918C
:2025600087058C1510F4C0928705B090890580918705B81610F4B0928705992369F4DD2427
:202580006091870570E06C197D09882777FD8095982F0E94893511C0983071F58091770578
:2025A000909178056AE070E00E94E237DD246C197D0980E090E00E9487357B018C016B2D4D
:2025C00070E06C197D09882777FD8095982F0E9489359B01AC01C801B7010E94EE3420E0B3
:2025E00030E048EC52E40E94BC360E9456357093D8026093D70213C0913039F48091870599
:202600008093D7021092D8020AC0993041F480917705909178059093D8028093D702609185
:20262000D7027091D802882777FD8095982F0E94893520E030E048EC52E40E94B136181656
:2026400034F484E690E09093D8028093D7028DB79EB70A970FB6F8949EBF0FBE8DBFEDB7EA
:20266000FEB7319606ED14E0ADB7BEB712961C930E9311978AE392E09383828389E090E0AB
:20268000958384838091D7029091D8029783868385E290E0918780870E94902C8DB79EB726
:2026A0000A960FB6F8949EBF0FBE8DBFC8010E94CA281F910F91FF90EF90DF90CF90BF90DB
:2026C0000895DF92EF92FF920F931F93CF93DF93282F462F86ED94E0622F0E940E2886ED23
:2026E00094E00E94E62880911305882309F487C0D0904505CD2DD0E080918A05992787FD66
:202700009095C817D907D9F16D2D70E080E090E00E9487357B018C0160918B0570918C05D7
:2027200080918D0590918E050E9487359B01AC01C801B7010E94BC367B018C0160918F05F8
:20274000772767FD70956C1B7D0B882777FD8095982F0E9489359B01AC01C801B7010E9498
:20276000EE3420E030E04AE754E40E94EE340E945B357093910560939005D0928A05209105
:202780009005309191058DB79EB70C970FB6F8949EBF0FBE8DBFEDB7FEB7319686ED94E043
:2027A000ADB7BEB712969C938E93119782E492E09383828387E190E095838483C9016CE39D
:2027C00070E00E94F637CB016CE370E00E94F637978386838AE390E091878087C9016CE368
:2027E00070E00E94F637938782870E94902C8DB79EB70C960FB6F8949EBF0FBE8DBF86EDC4
:2028000094E00E94CA28DF91CF911F910F91FF90EF90DF900895EF92FF920F931F93282FB9
:20282000462F66EDE62E64E0F62EC701622F0E940E28C7010E94E6288DB79EB70A970FB6AC
:20284000F8949EBF0FBE8DBF0DB71EB70F5F1F4FEDB7FEB7F282E1828EE492E0F8019383DE
:2028600082832091D60230E080919205909193056AE070E00E94E237CB01289FB001299FF8
:20288000700D389F700D11242091FA043091FB04620F731F80E090E00E94873520E030E082
:2028A00048EC52E40E94EE34F80164837583868397838091F8049091F904918780870E9403
:2028C000902C8DB79EB70A960FB6F8949EBF0FBE8DBFC7010E94CA281F910F91FF90EF9082
:2028E00008959F92AF92BF92CF92DF92EF92FF920F931F9376EDA72E74E0B72EC5016BE0BE
:2029000044E00E940E28C5010E94E6282091430530914405C090F204D090F304E090F4043D
:20292000F090F5049090F7048DB79EB7C0970FB6F8949EBF0FBE8DBF0DB71EB70F5F1F4FD7
:20294000EDB7FEB7B282A18286E592E0F8019383828388E090E095838483C9016CE370E076
:202960000E94F637CB016CE370E00E94F637978386838AE390E091878087C9016CE370E0C6
:202980000E94F637938782878BE090E095878487C701B601209194053091950540919605B3
:2029A000509197050E94BC360E945635F80177876687908A118A8FE890E0938B828BC70166
:2029C000B601209198053091990540919A0550919B050E94BC360E945635F801758B648BF9
:2029E000968A178A84E190E0918F808F60919C0570919D0580919E0590919F052091EE04C1
:202A00003091EF044091F0045091F1040E94BC360E945635F801738F628F8091F604848F9C
:202A2000158E82E190E0978F868FC701B6012091A0053091A1054091A2055091A3050E9406
:202A4000BC360E945635F80171A360A392A213A283E090E095A384A380912F059091300591
:202A6000A0913105B091320586A397A3A0A7B1A784E090E093A782A780913305909134059B
:202A8000A0913505B091360584A795A7A6A7B7A70E94902C8DB79EB7C0960FB6F8949EBF42
:202AA0000FBE8DBFC5010E94CA281F910F91FF90EF90DF90CF90BF90AF909F900895CF92BC
:202AC000DF92EF92FF920F931F93CF93DF93282F462FC6EDD4E0CE01622F0E940E28CE0111
:202AE0000E94E628609198057091990580919A0590919B052091F2043091F3044091F40460
:202B00005091F5040E94BC366B017C0120E03CE34CE156E40E94B1361816C4F58DB79EB7CF
:202B20000C970FB6F8949EBF0FBE8DBF0DB71EB70F5F1F4FADB7BEB71296DC93CE931197BD
:202B400084E992E0F801938382838FE890E0958384836091FD047091FE0480E090E00E9415
:202B600087359B01AC01C701B6010E94EE34D80116966D937D938D939C9319978091FC0468
:202B80001A968C931A971B961C9221C08DB79EB70C970FB6F8949EBF0FBE8DBFEDB7FEB719
:202BA0003196ADB7BEB71296DC93CE9311978DE991E0938382838FE890E095838483C68205
:202BC000D782E086F1868091F704828713860E94902CEDB7FEB73C960FB6F894FEBF0FBEAD
:202BE000EDBF86ED94E00E94CA28DF91CF911F910F91FF90EF90DF90CF900895EF92FF9203
:202C00000F931F93282F462F86ED94E0622F0E940E2886ED94E00E94E6288091A4059091D2
:202C2000A50564E670E00E94E23780E090E00E9487352091170530911805409119055091EC
:202C40001A050E9420347B018C0120E030E044EB53E40E94EE3420E030E040E851E40E940D
:202C6000BC3620E030E040E85FE30E9421340E941F370E945635862F6093A60567FF03C050
:202C8000805F8093A6058091A605882319F480E18093A6058091A605813119F481E0809315
:202CA000A605C801B70120E030E044E353E40E94B13618164CF4C801B70120E030E044EBC3
:202CC00053E40E94203415C0C801B70120E030E044E353EC0E94E73488234CF4C801B701D2
:202CE00020E030E044EB53E40E94213402C0C801B7010E945B3570931105609310058091C0
:202D0000A60562E00E94B80786ED94E00E94CA281F910F91FF90EF900895EF92FF920F933B
:202D20001F93CF93DF93282F462F86ED94E0622F0E940E2886ED94E00E94E628209115058F
:202D400030911605121613062CF02115310559F128593E4FB901882777FD8095982F0E941B
:202D6000893520911705309118054091190550911A050E94203420E030E044EB53E40E94ED
:202D8000EE3420E030E040E851E40E94BC360E941F3720E030E040E85FE30E9421340E9405
:202DA000563560931B0580911B0587FF03C0805F80931B0580911B05882319F480E180938C
:202DC0001B05E0901C05F0901D0500911E0510911F05C801B70120E030EC49E754E40E9480
:202DE000B13618162CF480E090ECA9E7B4E40EC0C801B70120E030EC49E754EC0E94E73402
:202E0000882364F480E090ECA9E7B4EC80931C0590931D05A0931E05B0931F058DB79EB7D4
:202E200042970FB6F8949EBF0FBE8DBF0DB71EB70F5F1F4FC6EDD4E0EDB7FEB7D283C18324
:202E40008EE992E0F8019383828387E590E09583848380E790E09783868380912005808743
:202E6000118613861286609121057091220580E090E00E9487352091F2043091F3044091ED
:202E8000F4045091F5040E94BC36F80164877587868797878091F704808B118A0E94902CB1
:202EA0008DB79EB742960FB6F8949EBF0FBE8DBF80911B0560E00E94B807809112058A3026
:202EC00009F045C0EDB7FEB770970FB6F894FEBF0FBEEDBF0DB71EB70F5F1F4FD283C183FF
:202EE00080EB92E0F8019383828380E290E09583848388E590E09783868385E690E09187FD
:202F0000808760911C0570911D0580911E0590911F052091F2043091F3044091F4045091F3
:202F2000F5040E94BC36F80162877387848795878091F704868717860E94902C8DB79EB754
:202F400040960FB6F8949EBF0FBE8DBF10C000D000D0EDB7FEB7D283C18386ED90E0948378
:202F600083830E947F2C0F900F900F900F9086ED94E00E94CA28DF91CF911F910F91FF9058
:202F8000EF9008950F931F93282F462F06ED14E0C801622F0E940E28C8010E94E62800D093
:202FA00000D0EDB7FEB7128301838FED90E0948383830E947F2C0F900F900F900F90C80134
:202FC0000E94CA281F910F910895CF92DF92EF92FF920F931F937C01D62EC72E06ED14E0DB
:202FE000C8016E2D4D2D0E940E28C8010E94E62800D000D0EDB7FEB7128301838CEE90E0A6
:20300000948383830E947F2C0F900F900F900F90C8010E94CA28C70101966D2D7C2D0E9429
:203020008F08C7016D2D7C2D0E943F071F910F91FF90EF90DF90CF9008950F931F9306EDF6
:2030400014E0C80165E045E00E940E28C8010E94E62800D000D0EDB7FEB7128301838CE377
:2030600091E0948383830E947F2C0F900F900F900F90C8010E94CA281F910F9108950E940D
:203080001D180E944E060895EF92FF920F931F930E9452320E9487357B018C016091A705D8
:2030A0007091A8058091A9059091AA0520E030E849E055E40E9421349B01AC01C801B70198
:2030C0000E94B136181694F48091E402823039F086ED94E00E94332982E08093E40285E03A
:2030E00090E06AE070E00E94C2178FC280911305882341F50E94523220E137E240E050E060
:203100000E94093820FD1EC0609198057091990580919A0590919B0520E030E048E452E4C1
:203120000E94B136181674F48091E402813039F086ED94E00E94332981E08093E4020E94BE
:20314000711463C282E00E949133892BD9F78091410480FF08C060919B048091990490E02E
:2031600070E00E94160E80916B05843010F00E94D90380916A05882321F48091E4028823A4
:2031800041F086ED94E00E94332910926A051092E40280916905823009F437C2A82FB0E0F2
:2031A000FD01E15CFB4F808186FF0BC0FD01E956FB4F6081AB56BB4F8C9190E070E00E9447
:2031C000E51782E00E949133892BD9F780916905A82FB0E0FD01E55CFB4F808181FF0BC0EC
:2031E000FD01E95BFB4F6081AB5BBB4F8C9190E070E00E94820C80916905A82FB0E0FD0161
:20320000E55CFB4F808182FF0BC0FD01E55BFB4F6081A75BBB4F8C9190E070E00E94420C94
:2032200080916905A82FB0E0FD01E55CFB4F808183FF0BC0FD01E15BFB4F6081A35BBB4F64
:203240008C9190E070E00E94000C80916905A82FB0E0FD01E55CFB4F808185FF0BC0FD0126
:20326000ED5AFB4F6081AF5ABB4F8C9190E070E00E94B00B80916905A82FB0E0FD01E55C6A
:20328000FB4F808187FF0BC0FD01E55AFB4F6081A75ABB4F8C9190E070E00E94660B80911E
:2032A0006905A82FB0E0FD01E55CFB4F808184FF0BC0FD01E15AFB4F6081A35ABB4F8C91D9
:2032C00090E070E00E94680D80916905A82FB0E0FD01E55CFB4F808186FF0BC0FD01E95A16
:2032E000FB4F6081AB5ABB4F8C9190E070E00E94FE1580916905A82FB0E0FD01E35CFB4F95
:20330000808180FF0BC0FD01ED59FB4F6081AF59BB4F8C9190E070E00E94E60A80916905F3
:20332000A82FB0E0FD01E35CFB4F808181FF0BC0FD01E959FB4F6081AB59BB4F8C9190E04D
:2033400070E00E94240B8091AB05813051F580916905A82FB0E0FD01E35CFB4F808184FFA3
:203360000BC0FD01E159FB4F6081A359BB4F8C9190E070E00E94C20C80916905A82FB0E0E6
:20338000FD01E35CFB4F808183FF0BC0FD01E559FB4F6081A759BB4F8C9190E070E00E9468
:2033A000CE0A80916905A82FB0E0FD01E35CFB4F808187FF0BC0FD01E958FB4F6081AB5809
:2033C000BB4F8C9190E070E00E941B0D809120058823A9F080916905A82FB0E0FD01E35C9F
:2033E000FB4F808186FF0BC0FD01ED58FB4F6081AF58BB4F8C9190E070E00E948D1682E02F
:203400000E949133892BD9F780916905A82FB0E0FD01E15CFB4F808182FF0BC0FD01E158D3
:20342000FB4F6081A358BB4F8C9190E070E00E94681180916905A82FB0E0FD01E15CFB4FF9
:20344000808187FF0BC0FD01ED57FB4F6081AF57BB4F8C9190E070E00E947D108091690512
:20346000A82FB0E0FD01E15CFB4F808183FF0BC0FD01E957FB4F6081AB57BB4F8C9190E010
:2034800070E00E94F70F80916905A82FB0E0FD01E15CFB4F808181FF0BC0FD01E557FB4FF9
:2034A0006081A757BB4F8C9190E070E00E94710F80916905A82FB0E0FD01E15CFB4F8081B8
:2034C00084FF0BC0FD01E157FB4F6081A357BB4F8C9190E070E00E94DC0D80916905A82F7B
:2034E000B0E0FD01E15CFB4F808185FF0BC0FD01ED56FB4F6081AF56BB4F8C9190E070E00F
:203500000E943F0A80916905A82FB0E0FD01E15CFB4F808180FF0BC0FD01E558FB4F6081A4
:20352000A758BB4F8C9190E070E00E94EE1182E00E949133892BD9F780916905A82FB0E0D2
:20354000FD01EF5BFB4F808183FF0BC0FD01ED55FB4F6081AF55BB4F8C9190E070E00E9493
:20356000031180916905A82FB0E0FD01EF5BFB4F808186FF0BC0FD01E955FB4F6081AB5507
:20358000BB4F8C9190E070E00E94971280916905A82FB0E0FD01EF5BFB4F808187FF0BC02F
:2035A000FD01E555FB4F6081A755BB4F8C9190E070E00E94611380916905A82FB0E0FD01CB
:2035C000ED5BFB4F808181FF0BC0FD01ED54FB4F6081AF54BB4F8C9190E070E00E940B14F8
:2035E00080916905A82FB0E0FD01ED5BFB4F808182FF0BC0FD01E954FB4F6081AB54BB4F99
:203600008C9190E070E00E945F1580916905A82FB0E0FD01E170F070EF5BFB4F808185FF09
:203620000BC0FD01E155FB4F6081A355BB4F8C9190E070E00E943F120E94AA031F910F91EF
:20364000FF90EF900895CF93DF93EC0186ED94E00E940A28C817D9073CF086ED94E00E94CF
:20366000FF27892B09F42397CE01DF91CF910895EF92FF920F931F93CF93DF930091690544
:2036800010E08AEF90E0089F7001099FF00C189FF00C1124C70188569F4F0E943907F8013E
:2036A000E55CFB4F882319F08081806102C080818F7E808380916905C82FD0E0C70186564C
:2036C0009F4F0E943907C35ADB4F888380916905C82FD0E0C70184569F4F0E94390790E0C0
:2036E0000E94231BC15ADB4F88830091690510E0C70106960E943907F801E55CFB4F882336
:2037000019F08081826002C080818D7F808380916905C82FD0E0C70108960E943907CB5B57
:20372000DB4F888380916905C82FD0E0C7010A960E94390790E00E94231BC95BDB4F88833B
:203740000091690510E0C7010C960E943907F801E55CFB4F882319F08081846002C080814E
:203760008B7F808380916905C82FD0E0C7010E960E943907C75BDB4F888380916905C82FFB
:20378000D0E0C70140960E94390790E00E94231BC55BDB4F88830091690510E0C7014296C5
:2037A0000E943907F801E55CFB4F882319F08081886002C08081877F808380916905C82FC4
:2037C000D0E0C70144960E943907C35BDB4F888380916905C82FD0E0C70146960E943907B6
:2037E00090E00E94231BC15BDB4F88830091690510E0C7014E960E943907F801E55CFB4F27
:20380000882319F08081806202C080818F7D808380916905C82FD0E0C70180960E94390759
:20382000CF5ADB4F888380916905C82FD0E0C70182960E94390790E00E94231BCD5ADB4FA1
:2038400088830091690510E0C70184960E943907F801E55CFB4F882319F08081806402C0CB
:2038600080818F7B808380916905C82FD0E0C70186960E943907CB5ADB4F88838091690575
:20388000C82FD0E0C70188960E94390790E00E94231BC95ADB4F88830091690510E0C7015A
:2038A0008A960E943907F801E55CFB4F882319F08081806802C080818F778083809169059A
:2038C000C82FD0E0C7018C960E943907C75ADB4F888380916905C82FD0E0C7018E960E946B
:2038E000390790E00E94231BC55ADB4F88830091690510E0C701C0960E943907F801E35CBD
:20390000FB4F882319F08081816002C080818E7F808380916905C82FD0E0C701C2960E940C
:203920003907CF59DB4F888380916905C82FD0E0C701C4960E94390790E00E94231BCD594A
:20394000DB4F88830091690510E0C701C6960E943907F801E35CFB4F882319F08081826024
:2039600002C080818D7F808380916905C82FD0E0C701C8960E943907CB59DB4F88838091DD
:203980006905C82FD0E0C701CA960E94390790E00E94231BC959DB4F88830091690510E072
:2039A000C701885B9F4F0E943907F801E35CFB4F882319F08081806102C080818F7E8083A1
:2039C00080916905C82FD0E0C701865B9F4F0E943907C359DB4F888380916905C82FD0E0D1
:2039E000C701845B9F4F0E94390790E00E94231BC159DB4F88830091690510E0C7018E5B11
:203A00009F4F0E943907F801E35CFB4F882319F08081886002C08081877F8083809169056C
:203A2000C82FD0E0C7018C5B9F4F0E943907C759DB4F888380916905C82FD0E0C7018A5B38
:203A40009F4F0E94390790E00E94231BC559DB4F88830091690510E0C7018A5A9F4F0E94C8
:203A60003907F801E35CFB4F882319F08081806402C080818F7B808380916905C82FD0E0F5
:203A8000C701885A9F4F0E943907CF58DB4F888380916905C82FD0E0C701865A9F4F0E94F2
:203AA000390790E00E94231BCD58DB4F88830091690510E0C70182569F4F0E943907F801C4
:203AC000E35CFB4F882319F08081806802C080818F77808380916905C82FD0E0C701805630
:203AE0009F4F0E943907CB58DB4F888380916905C82FD0E0C7018E559F4F0E94390790E08D
:203B00000E94231BC958DB4F88830091690510E0C7018E599F4F0E943907F801E15CFB4F81
:203B2000882319F08081816002C080818E7F808380916905C82FD0E0C7018C599F4F0E94B9
:203B40003907C758DB4F888380916905C82FD0E0C7018A599F4F0E94390790E00E94231BE0
:203B6000C558DB4F88830091690510E0C70182599F4F0E943907F801E15CFB4F882319F05D
:203B80008081846002C080818B7F808380916905C82FD0E0C70180599F4F0E943907C358BE
:203BA000DB4F888380916905C82FD0E0C7018E589F4F0E94390790E00E94231BC158DB4F99
:203BC00088830091690510E0C70184579F4F0E943907F801E15CFB4F882319F0808180685B
:203BE00002C080818F77808380916905C82FD0E0C70182579F4F0E943907CF57DB4F888307
:203C000080916905C82FD0E0C70180579F4F0E94390790E00E94231BCD57DB4F88830091D5
:203C2000690510E0C7018E569F4F0E943907F801E15CFB4F882319F08081826002C08081D0
:203C40008D7F808380916905C82FD0E0C7018C569F4F0E943907C757DB4F888380916905E3
:203C6000C82FD0E0C7018A569F4F0E94390790E00E94231BC557DB4F88830091690510E095
:203C8000C7018C589F4F0E943907F801E15CFB4F882319F08081886002C08081877F8083BF
:203CA00080916905C82FD0E0C7018A589F4F0E943907CB57DB4F888380916905C82FD0E0E7
:203CC000C70188589F4F0E94390790E00E94231BC957DB4F88830091690510E0C701865832
:203CE0009F4F0E943907F801E15CFB4F882319F08081806102C080818F7E8083809169058C
:203D0000C82FD0E0C70184589F4F0E943907C357DB4F888380916905C82FD0E0C701825871
:203D20009F4F0E94390790E00E94231BC157DB4F88830091690510E0C70180589F4F0E94F7
:203D40003907F801E15CFB4F882319F08081806202C080818F7D808380916905C82FD0E014
:203D6000C7018E579F4F0E943907CF56DB4F888380916905C82FD0E0C7018C579F4F0E940B
:203D8000390790E00E94231BCD56DB4F88830091690510E0C7018A579F4F0E943907F801DA
:203DA000E15CFB4F882319F08081806402C080818F7B808380916905C82FD0E0C701885746
:203DC0009F4F0E943907CB56DB4F888380916905C82FD0E0C70186579F4F0E94390790E0B2
:203DE0000E94231BC956DB4F88830091690510E0C7018C559F4F0E943907F801EF5BFB4F9A
:203E0000882319F08081816002C080818E7F808380916905C82FD0E0C7018A559F4F0E94DC
:203E20003907C756DB4F888380916905C82FD0E0C70188559F4F0E94390790E00E94231B05
:203E4000C556DB4F88830091690510E0C70180559F4F0E943907F801EF5BFB4F882319F075
:203E60008081846002C080818B7F808380916905C82FD0E0C7018E549F4F0E943907C356D4
:203E8000DB4F888380916905C82FD0E0C7018C549F4F0E94390790E00E94231BC156DB4FBE
:203EA00088830091690510E0C7018A549F4F0E943907F801EF5BFB4F882319F08081886068
:203EC00002C08081877F808380916905C82FD0E0C70188549F4F0E943907CF55DB4F888323
:203EE00080916905C82FD0E0C70186549F4F0E94390790E00E94231BCD55DB4F88830091F2
:203F0000690510E0C701845A9F4F0E943907F801EF5BFB4F882319F08081806402C08081E4
:203F20008F7B808380916905C82FD0E0C701825A9F4F0E943907CB55DB4F88838091690506
:203F4000C82FD0E0C701805A9F4F0E94390790E00E94231BC955DB4F88830091690510E0B6
:203F6000C7018E539F4F0E943907F801EF5BFB4F882319F08081806802C080818F778083D2
:203F800080916905C82FD0E0C7018C539F4F0E943907C755DB4F888380916905C82FD0E00D
:203FA000C7018A539F4F0E94390790E00E94231BC555DB4F88830091690510E0C70188535B
:203FC0009F4F0E943907F801EF5BFB4F882319F08081806202C080818F7D8083809169059C
:203FE000C82FD0E0C70186539F4F0E943907C355DB4F888380916905C82FD0E0C701845397
:204000009F4F0E94390790E00E94231BC155DB4F88830091690510E0C7018C529F4F0E9410
:204020003907F801ED5BFB4F882319F08081826002C080818D7F808380916905C82FD0E026
:20404000C7018A529F4F0E943907CF54DB4F888380916905C82FD0E0C70188529F4F0E943C
:20406000390790E00E94231BCD54DB4F88830091690510E0C70180529F4F0E943907F80108
:20408000ED5BFB4F882319F08081846002C080818B7F808380916905C82FD0E0C7018E5158
:2040A0009F4F0E943907CB54DB4F888380916905C82FD0E0C7018C519F4F0E94390790E0D1
:2040C0000E94231BC954DB4F8883DF91CF911F910F91FF90EF90089583E696E064E773E066
:2040E0000E94C230813039F083E696E064E773E041E00E94C93083E696E062EA73E00E94F9
:20410000C230823039F083E696E062EA73E042E00E94C93083E696E064EA73E00E94C23083
:20412000843039F083E696E064EA73E044E00E94C93083E696E066EA73E00E94C23081309C
:2041400039F083E696E066EA73E041E00E94C93008958F929F92AF92BF92CF92DF92FF9214
:204160000F931F93CF93DF93F62E4901C82EDD248601000F111F5801AC0CBD1CE501CC0F41
:20418000DD1FCC0FDD1FC55DD94F18828B819C818430910509F48EC0853091055CF482305D
:2041A000910509F443C0833091050CF0BFC09923C4F44FC28730910509F443C18830910584
:2041C00044F48530910509F4DEC0069709F041C207C18830910509F47AC1099709F039C246
:2041E000E7C18EEF681709F034C282E090E09C838B8380E790E0C89ED001C99EB00DD89E85
:20420000B00D1124A554BA4F13961C92139788E390E0C89EF001C99EF00DD89EF00D11246B
:20422000EE0FFF1FE354FA4F6083A4C1E5E6E61788F489818F5F8983F501EE0FFF1FEE0F45
:20424000FF1FE35DF94F80818F5F8083188281E090E02DC080E790E0C89EF001C99EF00DDC
:20426000D89EF00D1124E554FA4F63831D8280818627282F2295207F282730E0522F4427E9
:20428000C90163E0880F991F6A95E1F748275927818190E04827592784E0359527958A9592
:2042A000E1F7422753275183408384E090E09C838B83CFC18CE190E0C89EF001C99EF00D83
:2042C000D89EF00D1124EE0FFF1FEE0FFF1FE154FA4F608380E790E0C89EF001C99EF00D0D
:2042E000D89EF00D1124E554FA4F80818627282F2295207F282730E0522F4427C901B3E091
:20430000880F991FBA95E1F748275927818190E048275927A4E035952795AA95E1F742274D
:2043200053275183408383E090E0C1CF80E790E0C89EF001C99EF00DD89EF00D1124E55496
:20434000FA4F658380818627282F2295207F282730E0522F4427C90163E0880F991F6A952B
:20436000E1F748275927818190E04827592704E0359527950A95E1F74227532751834083BA
:2043800085E090E094CF80E790E0C89EF001C99EF00DD89EF00D1124E554FA4F668380813F
:2043A0008627282F2295207F282730E0522F4427C901B3E0880F991FBA95E1F74827592796
:2043C000818190E048275927A4E035952795AA95E1F7422753275183408386E090E067CFD5
:2043E00080E790E0C89EF001C99EF00DD89EF00D1124E554FA4F678380818627282F22955B
:20440000207F282730E0522F4427C90163E0880F991F6A95E1F748275927818190E04827AF
:20442000592794E0359527959A95E1F742275327518340838381882309F446C087E090E0F8
:2044400036CF6D81F80183E0EE0FFF1F8A95E1F7E01BF10B319603E0EE0FFF1F0A95E1F7C8
:20446000E60FF11DE554FA4FF0826F5F6D8380E790E0C89EF001C99EF00DD89EF00D11244D
:20448000E554FA4F80818F25282F2295207F282730E0522F4427C901B3E0880F991FBA95F2
:2044A000E1F748275927818190E048275927A4E035952795AA95E1F7422753275183408339
:2044C0008381681709F0C5C088E090E0F0CE80E790E0C89ED001C99EB00DD89EB00D1124AB
:2044E000A554BA4F9C911796EC911797F0E0E551FD4F80818927482F4295407F482750E006
:20450000342F2227CA0173E0880F991F7A95E1F72827392711968C91119790E02827392761
:2045200064E0559547956A95E1F72427352711963C932E938F2D90E0307082179307F9F0D4
:20454000F501EE0FFF1FEE0FFF1FE35DF94F80818F5F8083188281E090E09C838B83FEEF30
:20456000FF1609F076C082E090E09C838B8313961C9213978FEF9FEF8D939C936AC089E009
:2045800090E09C838B83F80183E0EE0FFF1F8A95E1F7E01BF10B319603E0EE0FFF1F0A95B5
:2045A000E1F78D81E80FF11DE554FA4FF08251C0262F30E080E790E0C89EB001C99E700DD4
:2045C000D89E700D112465547A4FFB01818190E028173907E9F0F501EE0FFF1FEE0FFF1F3F
:2045E000E35DF94F80818F5F8083188281E090E09C838B83FEEFFF1661F582E090E09C8360
:204600008B83EB011B828FEF9FEF9983888321C081E0888381E090E09C838B83F801B3E0F9
:20462000EE0FFF1FBA95E1F7E01BF10B3196A3E0EE0FFF1FAA95E1F78D81E80FF11DE4547A
:20464000FA4FF082DA01FB0180E701900D928150E1F7D601AA0FBB1FAC0DBD1DAA0FBB1FF8
:20466000AA0FBB1FA55DB94F8C91813069F58CE190E0C89EF001C99EF00DD89EF00D112431
:20468000EE0FFF1FEE0FFF1FE154FA4F808116968C93169718968D919C911997892B21F47B
:2046A0001B961C921E921A97F601EE0FFF1FEC0DFD1DEE0FFF1FEE0FFF1FE55DF94F808550
:2046C0009185019691878087F601EE0FFF1FEC0DFD1DEE0FFF1FEE0FFF1FDF01A55DB94FC9
:2046E00016968C9116978F5FE4018E8318968D919C91199799878887E35DF94F80818A87EE
:204700001B8610828C91DF91CF911F910F91FF90DF90CF90BF90AF909F908F9008956F9252
:204720007F929F92AF92BF92CF92DF92EF92FF920F931F93DF93CF93CDB7DEB7C054D0405C
:204740000FB6F894DEBF0FBECDBF86ED94E00E94332900D000D009EB14E0EDB7FEB71283B7
:2047600001838FE591E0948383830E947F2C2BE5622E21E0722EEE24FF24CC24DD240F9060
:204780000F900F900F90902E012F5E010894A11CB11C89EB94E00E948F2A982F8D3031F0E1
:2047A0008D30D4F080538230B8F40BC0183039F40894E11CF11CF501EE0DFF1D108210E0D2
:2047C0000BC0F501EE0DFF1D8081880F8083913311F48F5F80831F5FF0E4EF16F104C9F4A3
:2047E00086ED94E0B601A5010E941E280894C11CD11C00D000D0EDB7FEB7918202837482A0
:2048000063820E947F2CEE24FF240F900F900F900F90FFEFCF16D10409F00CF4BACFC05C6F
:20482000DF4F0FB6F894DEBF0FBECDBFCF91DF911F910F91FF90EF90DF90CF90BF90AF9079
:204840009F907F906F900895AF92BF92CF92DF92EF92FF920F931F93DF93CF93CDB7DEB7C7
:20486000CC57D0400FB6F894DEBF0FBECDBF8E01035F1F4F5E010894A11CB11CEE24E39451
:2048800035E1C32ED12CCC0EDD1EBFC189EB94E00E948F2AF82E8091AC05882311F50E9441
:2048A000523260527E4480409040D8F40E9452326958734180409040A0F0FAE0FF1619F0F1
:2048C0002DE0F21631F48091AD058F5F8093AD0502C01092AD058091AD05833011F40E94F5
:2048E0008F2380E06F2DA80195010E94A920882309F487C10E9452320E9487356093A7054D
:204900007093A8058093A9059093AA05E092AC058C898E3109F4F2C08F3158F4813099F167
:204920008130D0F0883109F44EC08D3109F069C161C18E3309F405C18F3338F4833209F41B
:204940001FC18A3209F05DC116C18A3409F48EC0883A09F056C134C1E092AE058A898093B2
:20496000AF058B898093B005F80180858093120586858093B105881F8827881F8093130583
:204980001092B2053EC1F8016689778980E090E00E94873520E030E04AE754E40E94EE346C
:2049A00060933B0570933C0580933D0590933E05F801808D918D909368058093670586A16B
:2049C000809345051EC1F801608D718D828D938D0E94893520E030E04AE754E40E94EE34EB
:2049E00060936305709364058093650590936605F80160897189828993890E94893520E87A
:204A000036E948E15BE40E94EE3460932F05709330058093310590933205F8016489758965
:204A2000868997890E94893520E836E948E15BE40E94EE34609333057093340580933505E0
:204A400090933605F601848D80933705858D80933A05828D938D9093A5058093A405848978
:204A600095899093390580933805CBC0F60180819181A281B3818093500590935105A09367
:204A80005205B093530584819581A681B78180935F0590936005A0936105B0936205F8016F
:204AA000608D718D882777FD8095982F0E94893560931705709318058093190590931A050A
:204AC000F801828D80934A0580899189A289B3898093000590930105A0930205B09303051C
:204AE000F60184859585A685B7858093B3059093B405A093B505B093B60583C0F80160897E
:204B000071898289938921EE3EE245E652E40E94BC360E9456357093070560930605F8011D
:204B2000648575858685978521EE3EE245E652E40E94BC360E945635709305056093040511
:204B400060C0F801868D978D909316058093150580A191A19093220580932105808D918D99
:204B6000A28DB38D80931C0590931D05A0931E05B0931F0546C0F80180858093200541C053
:204B8000F601848595859093720580937105868597859093740580937305F801808D918D66
:204BA0009093760580937505F601828993899093780580937705F801858D8093870521C0F2
:204BC000F60180819181A281B38180937A0590937B05A0937C05B0937D0584819581A68184
:204BE000B7818093080590930905A0930A05B0930B0507C0F80184899589909393058093DE
:204C000092058AE890E00E94B93289EB94E00E945F2A181619060CF439CE8091B705909139
:204C2000B8052B853C85820F931F9093B8058093B7052B818091B9059091BA05820F911DBA
:204C40009093BA058093B905C458DF4F0FB6F894DEBF0FBECDBFCF91DF911F910F91FF9061
:204C6000EF90DF90CF90BF90AF90089586E061E00E943D3308950F931F9386E061E00E94C9
:204C8000FE3209EB14E0C80140E051EE60E070E00E94FD2910936506009364060E94362673
:204CA00086ED94E00E94B2290E943F1864EF71E080E090E00E9460320E94C6061092690571
:204CC00007C00E94381B809169058F5F80936905809169058230A8F31092690560ED77E0AA
:204CE00080E090E00E94603289EB94E00E94DC2A1F910F9108952F923F924F925F926F92CE
:204D00007F928F929F92AF92BF92CF92DF92EF92FF920F931F93DF93CF9300D000D0CDB76E
:204D2000DEB790911305992331F080914706882311F41092AB05909347068091AB0588238C
:204D400049F580913705823008F403C180912F0590913005A0913105B0913205809348067B
:204D600090934906A0934A06B0934B068091330590913405A0913505B091360580934C06BB
:204D800090934D06A0934E06B0934F0681E08093AB05DFC0813009F0DCC0E0904806F09037
:204DA000490600914A0610914B06C801B7019F7725E33AEF4EE85CE30E94BC360E94EB343F
:204DC00069837A838B839C83C801B70120912F053091300540913105509132050E9420344C
:204DE0001B012C019F7720EC3BE649ED57E40E94BC365B016C0160914C0670914D068091B1
:204E00004E0690914F06209133053091340540913505509136050E9420343B014C019F7729
:204E200020EC3BE649ED57E40E94BC3629813A814B815C810E94BC367B018C01C601B50118
:204E4000A60195010E94BC365B016C01C801B701A80197010E94BC369B01AC01C601B5019C
:204E60000E9421340E9443370E94563560933F0570934005809341059093420560E070E020
:204E800080E89FE329813A814B815C810E94EE349B01AC01C201B1010E94BC3697FA90944F
:204EA00097F89094A40193010E94943420EE3EE245E652E40E94BC3620E030E044EB52E404
:204EC0000E9421340E9456359B01AC0197FF04C028593E4F4F4F5F4FCA01B901645B7040BD
:204EE0008040904097FF06C0CA01B9016C547F4F8F4F9F4F0E9489352091170530911805DC
:204F00004091190550911A050E9420340E94563597FF04C068597E4F8F4F9F4F0E9489356B
:204F200020E030E044EB53E40E94EE3420E030E040E851E40E94BC360E941F370E94563511
:204F4000DC01CB0160E170E00E94F6378F5F809314050F900F900F900F90CF91DF911F9132
:204F60000F91FF90EF90DF90CF90BF90AF909F908F907F906F905F904F903F902F900895D2
:204F80000E94090A86ED94E00E947B260E9444180E94B2040E946C2008950E94523220913A
:204FA0003706309138064091390650913A0628583F4F4F4F5F4F261737074807590760F4AC
:204FC0000E94523260933706709338068093390690933A060E94C0270E9424240895FC0178
:204FE0001382128288EE93E0A0E0B0E084839583A683B78383E194E0918380830895FC0184
:205000008089803419F421E030E002C020E030E0C9010895FC01818990E00895FC01648780
:20502000458766874787089580E090E0089580E090E0089580E090E008950895EF92FF9256
:205040001F93CF93DF93162F7A0186E060E00E943D338AE394E060E00E94D8028AE394E0D4
:2050600060E00E94D8028AE394E069E00E94D8028AE394E0612F0E94D802C0E0D0E0F70199
:20508000EC0FFD1F10818AE394E06AE00E94D8028AE394E06C2F0E94D8028AE394E06BE09D
:2050A0000E94D8028AE394E0612F0E94D8022196C633D10521F78AE394E068E00E94D80244
:2050C0008AE394E060EA0E94D8028AE394E060EA0E94D80285FDF9CF8AE394E060E00E9475
:2050E000D8028AE394E06CE00E94D80286E061E00E943D33DF91CF911F91FF90EF90089549
:205100001F93CF93DF93EC01162F86E060E00E943D338AE394E060E00E94D802112319F045
:20512000113059F404C08AE394E0688904C068896C618AE394E00E94D80286E061E00E9423
:205140003D33DF91CF911F910895EF92FF920F931F938EE1489F70011124E60EF11C86E0F9
:2051600060E00E943D330AE314E0C80165E00E94D802C8016F2D0E94D802C80166E00E94E0
:20518000D802C8016E2D0E94D8021F910F91FF90EF900895EF92FF920F931F937C010AE38A
:2051A00014E0C80167E00E94D802C8016FEF0E94D80286E061E00E943D33F70187858F5F21
:2051C00087871F910F91FF90EF900895EF92FF920F931F93FC01E7848EE1E89E700111245D
:2051E0008685E80EF11C86E060E00E943D330AE314E0C80164E00E94D802C80163E00E94D1
:20520000D802C80165E00E94D802C8016F2D0E94D802C80166E00E94D802C8016E2D0E94B8
:20522000D8021F910F91FF90EF9008951F93CF93DF93EC01162F6C3731F40E94CA28CE01B6
:205240000E94E6280AC08AE394E067E00E94D8028AE394E0612F0E94D80281E090E0DF9102
:20526000CF911F9108950F931F9386E060E00E943D330AE314E0C80164E00E94D802C80142
:2052800064E00E94D80286E061E00E943D331F910F9108951F9383E696E066E973E00E94D3
:2052A000C230882361F0813011F412E009C0823011F411E005C0833011F410E001C013E0C6
:2052C000109251061092500617C06091500670915106605F8AE394E00E94D8028AE394E06A
:2052E000612F0E94D80280915006909151060196909351068093500680915006909151066A
:2053000040971CF31F910895CF93DF93EC0186E060E00E943D338AE394E060EA0E94D8023A
:205320008AE394E06FEF0E94D80280FF05C080E4888B88E0898B13C083E696E060E973E02D
:205340000E94C230882319F4188A86E003C080E4888B88E0898B86E060E00E943D33DF911B
:20536000CF910895CF92DF92FF920F931F936C0186E061E00E94FE3282E060E00E94FE321F
:2053800082E061E00E943D33C6010E94842986E060E00E943D330AE314E0C8016CEE0E94E4
:2053A000D802C8016FEF0E94D802F82EC80160E00E94D802F60160896260C8010E94D802DE
:2053C00062E370E080E090E00E946032C8016CE60E94D802FFEEFF22C8016F2D0E94D802AE
:2053E000C6010E944A29C60161E00E9480281F910F91FF90DF90CF9008950F931F93DC0104
:20540000ED91FC910288F389E02D20E030E000E010E009951F910F9108958F92AF92CF9240
:20542000EF92FF920F931F93DF93CF93CDB7DEB7FC011382128288EE93E0A0E0B0E08483F3
:205440009583A683B78385E294E0918380835587448737872687118B008BF38AE28AC48A6F
:20546000A58A868A70E0CB0123E0880F991F2A95E1F79C012E5A394F308F278B865A994F02
:20548000928F818F81E090E002C0880F991F6A95E2F720916206282B20936206CF0140E0AA
:2054A00051EE60E070E00E94FD29CF91DF911F910F91FF90EF90CF90AF908F900895FC01D0
:2054C000838D882319F42FEF3FEF0DC00788F08DE02D2081318182819381281B390B8481DC
:2054E000958128233923C9010895FC01838D882319F42FEF3FEF11C0018CF28DE02D2081EC
:20550000318182819381281B390B2095309584819581282339232F5F3F4FC9010895FC017F
:20552000838D882361F0A789B08D2D913C91119712968D919C9113972817390721F44FEF50
:205540005FEFCA01089512968D919C9113971696ED91FC911797E80FF91F408112968D91FD
:205560009C911397019614962D913C9115978223932313969C938E93129750E0E2CFFC0101
:20558000838D882351F00788F08DE02D20813181828193812817390721F42FEF3FEFC901E2
:2055A0000895828193810680F781E02DE80FF91F8081282F30E0F3CFDC015796ED91FC911E
:2055C000589782819381918380835996ED91FC915A9780819181938382830895DC015B962A
:2055E0008C915B978823A9F15996ED91FC915A97208131812F5F3F4F84819581282339233B
:205600005C968C915C97882329F08281938128173907F9F08281938128173907D9F38081E2
:2056200091810680F781E02DE80FF91F60835996ED91FC915A97318320835296ED91FC9126
:205640005397808156969C91892B808321E030E002C020E030E0C9010895CF93DF93EC0184
:205660001B821A828A819B81998388831D821C828E819F81009721F00E9472311F821E8209
:20568000DF91CF9108950F931F938C01DC015296ED91FC915397208156968C915697559680
:2056A0009C915597892B80958223808357968D919C9158970E942D2BF801818D928D0E9477
:2056C0002D2BD8015B961C921F910F9108950F931F93CF93DF938C01FC011382128282812F
:2056E00093819183808341E0A1E0B0E001C04F5FFD01042E02C0EE0FFF1F0A94E2F79B01BE
:2057000082E06130780710F020E032E0E217F30770F3C1E0D0E002C0CC0FDD1F4A95E2F70D
:205720002197F801268137812115310541F0848195818C179D0789F0C9010E947231F801D9
:20574000D583C483CE0101960E94D5309C01F8019783868380E0232B09F081E0DF91CF910C
:205760001F910F910895AF92BF92CF92DF92EF92FF920F931F93CF93DF937C015A016B015A
:20578000E901DC015B968C915B978823F1F02115310539F45796ED91FC915897C481D5819B
:2057A00021960115110549F4D7015996ED91FC915A97048115810F5F1F4FD701ED91FC912C
:2057C0000088F189E02DC7010995F7018789908D209711F4C0E8D0E0BE010E94672B88237D
:2057E00081F0D70159968D919C915A970115110511F400E110E0B8010E94672B882309F0A2
:205800004DC0D701ED91FC910088F189E02DC701099567C0D7015096ED91FC915197B0E0BB
:20582000AB16B1EEBB06B0E0CB06B0E0DB0609F454C081E090E0D70154960C9002C0880FDC
:20584000991F0A94E2F7808360E079E08DE390E0A60195010E942B3821503040404050406A
:20586000CA01B90122E030E040E050E00E942B38D7011C96ED91FC911D9730831E96ED910E
:20588000FC911F972083D7015296ED91FC915397808155969C91892B808323C0D7015996F3
:2058A000ED91FC915A971382128282819381918380835796ED91FC91589713821282828182
:2058C00093819183808381E05B968C931A141B041C041D040CF49ECFD6CF108220E130E0E9
:2058E000C7CFDF91CF911F910F91FF90EF90DF90CF90BF90AF9008958FEF9FE70895DF93D8
:20590000CF93CDB7DEB7FE0139968D819E8161E04F8158859F010E94A12CCF91DF910895A7
:20592000DF93CF93CDB7DEB7FE0139968D819E8160E04F8158859F010E94A12CCF91DF91B3
:2059400008952F923F924F925F926F927F928F929F92AF92BF92CF92DF92EF92FF920F93CA
:205960001F93DF93CF93CDB7DEB764970FB6F894DEBF0FBECDBF3C01688B5A8B498B6901F3
:205980001C01AE014F5F5F4F5C8B4B8BE989FA89488940FD659140FF6191FA8BE98B662376
:2059A00009F4D7C3653249F440FD859140FF8191FA8BE98B8532B1F40CC06A3051F4D30104
:2059C000ED91FC910190F081E02DC1016DE009956AE0D301ED91FC910190F081E02DC10106
:2059E0000995D4CF982F10E0882499241032B0F49B3269F09C3228F4903251F0933271F423
:205A00000BC09D3239F0903349F4116028C01260146025C0186023C0106121C017FD2BC0F3
:205A2000892F80538A3078F416FF06C0BAE09B9E902C1124980E13C0EAE08E9E802C1124C6
:205A4000880E10620CC09E3221F416FD82C3106406C09C3611F4106802C0983661F4E98955
:205A6000FA89488940FD959140FF9191FA8BE98B992309F0BBCF892F8554833020F4812FCE
:205A80008061905E07C0892F8556833008F0E6C1812F8F7E86FD02C076E0972E6FE3F62EF8
:205AA000F822953619F450E4F52A07C0963619F480E8F82A02C091109A94F7FE0BC09BE3A8
:205AC000991520F427E05CE3B52E0DC0B92CB39427E009C0A7E0A91520F447E0942E27E0C9
:205AE00001C0292DBB24F6013496FD87EC87D6016D917D918D919C91AE014F5F5F4F0B2D87
:205B00000E948C016C010981E02FF0E0FF87EE8700FF05C0FE85F3FD02C01DE209C0F1FED5
:205B200002C01BE205C0F2FC02C010E001C010E28E859F858C709070892B09F444C0112372
:205B400011F483E001C084E0881510F088240EC0881AF3FC0BC0D301ED91FC910190F08164
:205B6000E02DC10160E209958A94A9F7112349F0D301ED91FC910190F081E02DC101612F0B
:205B80000995BE85B3FF03C00EE512E012C002E612E00FC0E114F10409F06052D301ED9168
:205BA000FC910190F081E02DC10109950F5F1F4F05C0EF2CFF24B0E1EB22FF24F80164915B
:205BC000662341F748C1F7FE13C0BC0CFE85F4FF04C08A81813309F4BA941B141CF0BB240D
:205BE000B3942DC048E04B1550F538E0B32E27C0F6FC25C0892D90E08C159D054CF05CEFFD
:205C0000C5165FEFD50624F080E8F82A01C09A94992049F0E2E0F0E0EC0FFD1FE90DF11D54
:205C200080818033A1F3F7FE0AC0B92CB394892D90E0C816D90614F0992401C09C18F7FC25
:205C400003C025E030E009C01C141D041CF021E030E003C096012F5F3F4F112311F02F5FFC
:205C60003F4F992029F0892D90E00196280F391F882D90E02817390714F0882401C0821AC7
:205C80004F2C5524C20189709070892B59F00CC0D301ED91FC910190F081E02DC10160E299
:205CA00009958A948820A1F7112349F0D301ED91FC910190F081E02DC101612F099543FE5C
:205CC0000BC00CC0D301ED91FC910190F081E02DC10160E309958A948820A1F7F7FE51C038
:205CE0008601D7FE02C000E010E076010894E11CF11CE01AF10AE1E0F0E0EC0FFD1FEE0E00
:205D0000FF1E26014B185108892D90E0AA24BB24A81AB90AFFEF0F3F1F0749F4D301ED913A
:205D2000FC910190F081E02DC1016EE20995C016D10634F0401651061CF4F701608101C0EF
:205D400060E3015010400894E11CF11C0A151B054CF0D301ED91FC910190F081E02DC1018E
:205D60000995D8CF0C151D0541F48A81863320F4853319F4BE85B4FF61E3D301ED91FC91B0
:205D800065C06A81613309F00F7ED301ED91FC910190F081E02DC10109959920E1F0D3012D
:205DA000ED91FC910190F081E02DC1016EE2099512E0E1E0F0E0EC0FFD1FE10FF11D6081A0
:205DC0001F5FD301ED91FC910190F081E02DC10109959A9471F7D301ED91FC910190F08180
:205DE000E02D44FC02C065E601C065E4C1010995D7FC05C0C114D10441F404FF06C0D0943B
:205E0000C194D108D3946DE201C06BE2D301ED91FC910190F081E02DC101099560E305C03A
:205E20006F5FE6EFFFEFCE0EDF1EFAE0CF16D104BCF7D301ED91FC910190F081E02DC10101
:205E40000995D301ED91FC916C2D605D0190F081E02DC1010995CC84DD8478C1933631F02C
:205E6000933799F0933509F061C023C0F601808189835E010894A11CB11C42E050E0C40E5D
:205E8000D51E21E0E22EF12C12C0D601AD90BC9016FD03C06FEF7FEF02C0692D70E0E2E0A3
:205EA000F0E0CE0EDF1EC5010E94CD027C011F7713C0D601AD90BC9016FD03C06FEF7FEF1A
:205EC00002C0692D70E0E2E0F0E0CE0EDF1EC5010E94C2027C01106813FF0BC023C0D301FA
:205EE000ED91FC910190F081E02DC10160E209958A94882D90E0E816F90688F313C0F50162
:205F000017FD659117FF61915F01D301ED91FC910190F081E02DC101099581108A94089476
:205F2000E108F108E114F10451F710C1943611F0993699F517FF0AC0F60120813181428167
:205F4000538184E090E0C80ED91E0CC0D6018D919C919C01442737FD4095542FE2E0F0E0B8
:205F6000CE0EDF1E9FE6F92EF12257FF09C050954095309521953F4F4F4F5F4FF0E8FF2A5A
:205F8000CA01B901AE014F5F5F4F2AE030E00E946402E82E4B89E41A41C0953721F41F7EE8
:205FA0002AE030E01CC0197F9F3661F0903720F4983509F0CEC00FC0903739F0983709F077
:205FC000C8C004C028E030E00AC0106114FD146020E130E004C014FD166020E132E017FF18
:205FE00008C0D6016D917D918D919C91E4E0F0E008C0D6018D919C91BC0180E090E0E2E0DE
:20600000F0E0CE0EDF1EAE014F5F5F4F0E946402E82EFB89EF1A8FE7F82EF122F6FE0BC0B3
:206020004EEFF422E91438F4F4FE07C0F2FC05C05FEEF52202C01E2D01C0192DF4FE0DC041
:20604000FE01EE0DF11D8081803319F489EEF82208C01F5FF2FE05C003C08F2D867809F075
:206060001F5F0F2DF3FC18C0F0FE13C0181510F09E2C0FC09E2C980C911A182D0AC0D3011C
:20608000ED91FC910190F081E02DC10160E209951F5F1815A0F304C0181510F4811A01C0B5
:2060A000882404FF17C0D301ED91FC910190F081E02DC10160E3099502FF29C0D301ED918D
:2060C000FC910190F081E02D01FD02C068E712C068E510C0802F8678D1F001FF02C06BE2A9
:2060E00001C060E2F7FC6DE2D301ED91FC910190F081E02DC10109950AC0D301ED91FC9164
:206100000190F081E02DC10160E309959A94E914A0F3EA94D301ED91FC91A1E0B0E0AC0FE6
:20612000BD1FAE0DB11D0190F081E02DC1016C910995EE2071F70AC0D301ED91FC910190DE
:20614000F081E02DC10160E209958A948820A1F71DCC64960FB6F894DEBF0FBECDBFCF9137
:20616000DF911F910F91FF90EF90DF90CF90BF90AF909F908F907F906F905F904F903F90FC
:206180002F900895F999FECF72BD61BDF89A80B50895F999FECF1FBA72BD61BD40BD0FB64C
:2061A000F894FA9AF99A0FBE08950F931F93CF93DF93BC018230910510F462E070E0E0918E
:2061C0007106F0917206A0E0B0E040E050E024C08081918186179707D0F08617970771F45D
:2061E00082819381109729F013969C938E9312972CC0909372068093710627C04115510582
:2062000019F08417950718F4EF018D01AC01DF01828193819C01F9013097D1F6411551053F
:20622000F9F0CA01861B970B8430910580F48A819B810115110521F0F8019383828304C06D
:206240009093720680937106FE01329645C0FE01E80FF91F619371930297998388833CC08B
:2062600080916F0690917006892B41F48091E7029091E8029093700680936F064091E90236
:206280005091EA024115510541F44DB75EB78091E5029091E602481B590B20916F06309188
:2062A000700624173507B0F4CA01821B930B8617970780F0AB014E5F5F4F8417950750F01E
:2062C000420F531F5093700640936F06F9016193719302C0E0E0F0E0CF01DF91CF911F91C6
:2062E0000F910895CF93DF939C01009709F48FC0EC0122971B821A8260917106709172064D
:206300006115710581F488819981820F931F20916F06309170062817390739F5D0937006D3
:20632000C0936F0674C0DB0140E050E0AC17BD0708F1BB83AA83FE0121913191E20FF31FD4
:20634000AE17BF0779F48D919C911197280F391F2E5F3F4F3983288312968D919C911397A4
:206360009B838A834115510571F4D0937206C09371064DC012968D919C911397AD0100974D
:2063800011F0DC01D3CFDA011396DC93CE931297FA0121913191E20FF31FCE17DF0769F4E6
:2063A00088819981280F391F2E5F3F4FFA01318320838A819B8193838283E0E0F0E0DB0110
:2063C00012968D919C911397009719F0BC01FD01F6CFAB014E5F5F4FDB018D919C91840F3F
:2063E000951F20916F06309170062817390779F4309729F4109272061092710602C0138232
:206400001282425050405093700640936F06DF91CF9108951F920F920FB60F9211242F9309
:206420003F938F939F93AF93BF9380916A0690916B06A0916C06B0916D0630916E0601966C
:20644000A11DB11D232F2D5F2D3720F02D570196A11DB11D20936E0680936A0690936B0679
:20646000A0936C06B0936D068091660690916706A0916806B09169060196A11DB11D809331
:20648000660690936706A0936806B0936906BF91AF919F918F913F912F910F900FBE0F9032
:2064A0001F9018958FB7F89420916A0630916B0640916C0650916D068FBFB901CA01089554
:2064C0009B01AC017FB7F8948091660690916706A0916806B091690666B5A89B05C06F3F86
:2064E00019F00196A11DB11D7FBFBA2FA92F982F8827860F911DA11DB11D62E0880F991F9B
:20650000AA1FBB1F6A95D1F7BC012DC0FFB7F8948091660690916706A0916806B0916906CB
:20652000E6B5A89B05C0EF3F19F00196A11DB11DFFBFBA2FA92F982F88278E0F911DA11D60
:20654000B11DE2E0880F991FAA1FBB1FEA95D1F7861B970B885E9340C8F22150304040405B
:20656000504068517C4F211531054105510571F60895019739F0880F991F880F991F029703
:206580000197F1F70895789484B5826084BD84B5816084BD85B5826085BD85B5816085BD60
:2065A000EEE6F0E0808181608083E1E8F0E01082808182608083808181608083E0E8F0E0C4
:2065C000808181608083E1EBF0E0808184608083E0EBF0E0808181608083EAE7F0E0808130
:2065E000846080838081826080838081816080838081806880831092C1000895CF93DF9329
:20660000482F50E0CA0188569D4FFC0134914C575D4FFA018491882369F190E0880F991F59
:20662000FC01EA59FD4FA591B491FC01E059FD4FC591D491662351F42FB7F8948C91932FF7
:20664000909589238C93888189230BC0623061F42FB7F8948C91932F909589238C93888199
:20666000832B88832FBF06C09FB7F8948C91832B8C939FBFDF91CF910895482F50E0CA01A4
:2066800084559D4FFC012491CA0188569D4FFC0194914C575D4FFA013491332309F440C06A
:2066A000222351F1233071F0243028F42130A1F0223011F514C02630B1F02730C1F02430CE
:2066C000D9F404C0809180008F7703C0809180008F7D8093800010C084B58F7702C084B595
:2066E0008F7D84BD09C08091B0008F7703C08091B0008F7D8093B000E32FF0E0EE0FFF1F6D
:20670000E059FD4FA591B4912FB7F894662321F48C919095892302C08C91892B8C932FBFDB
:206720000895682F70E0CB0184559D4FFC012491CB0188569D4FFC0144916C577D4FFB019F
:206740009491992319F420E030E03CC0222351F1233071F0243028F42130A1F0223011F55A
:2067600014C02630B1F02730C1F02430D9F404C0809180008F7703C0809180008F7D809357
:20678000800010C084B58F7702C084B58F7D84BD09C08091B0008F7703C08091B0008F7D02
:2067A0008093B000892F90E0880F991F86589D4FFC01A591B4918C9120E030E0842311F088
:2067C00021E030E0C90108950895CF93DF930E94C3320E94E4330E943B26C0E0D0E00E948B
:2067E000CD272097E1F30E940000F9CFCF92DF92EF92FF920F931F93CF93DF937C016B01BB
:206800008A01C0E0D0E00FC0D6016D916D01D701ED91FC910190F081E02DC7010995C80F5C
:20682000D91F015010400115110571F7CE01DF91CF911F910F91FF90EF90DF90CF900895C3
:206840005058BB27AA270ED041C201D230F006D220F031F49F3F11F41EF4C0C10EF4E0950F
:20686000E7FBB6C1E92F54D280F3BA17620773078407950718F071F49EF56CC20EF4E0958E
:206880000B2EBA2FA02D0B01B90190010C01CA01A0011124FF27591B99F0593F50F4503E77
:2068A00068F11A16F040A22F232F342F4427585FF3CF469537952795A795F0405395C9F73E
:2068C0007EF41F16BA0B620B730B840BBAF09150A1F0FF0FBB1F661F771F881FC2F70EC085
:2068E000BA0F621F731F841F48F4879577956795B795F7959E3F08F0B3CF9395880F08F0D3
:206900009927EE0F979587950895A1D158F080E891E009F49EEFA2D128F040E851E059F487
:206920005EEF09C05BC116C2E92FE078F1D168F3092E052AC1F3261737074807590738F054
